:10000000B00E0020FD170000813B000051180000D9
:1000100051180000511800005118000000000000A5
:100020000000000000000000000000003D1600007D
:100030005118000000000000F5150000693B0000A9
:10004000BD170000BD170000BD170000BD17000060
:10005000BD170000BD170000BD170000BD17000050
:10006000BD170000BD170000BD170000BD17000040
:10007000BD170000BD170000BD170000BD17000030
:10008000BD170000BD170000BD170000BD17000020
:10009000BD170000BD170000BD170000BD17000010
:1000A000BD170000BD170000BD170000BD17000000
:1000B000BD170000BD170000BD170000BD170000F0
:1000C000BD170000BD170000BD170000BD170000E0
:0C00D000BD170000E1030000BD17000098
:1000DC0053B94AB9002908BF00281CBF4FF0FF31A3
:1000EC004FF0FF3000F074B9ADF1080C6DE904CE9F
:1000FC0000F006F8DDF804E0DDE9022304B07047F7
:10010C002DE9F047089E0D4604468846002B4DD13C
:10011C008A42944668D9B2FA82F252B101FA02F3D9
:10012C00C2F1200120FA01F10CFA02FC41EA0308A9
:10013C0094404FEA1C45210CB8FBF5FE1FFA8CF7D6
:10014C0005FB1E8341EA03430EFB07F199420BD9D1
:10015C001CEB03030EF1FF3080F01E81994240F23C
:10016C001B81AEF1020E63445B1AA4B2B3FBF5F033
:10017C0005FB103344EA034400FB07F7A7420AD9F6
:10018C001CEB040400F1FF3380F00881A74240F21D
:10019C00058164440238E41B40EA0E4000211EB184
:1001AC00D4400023C6E90043BDE8F0878B4208D950
:1001BC00002E00F0EE800021C6E900050846BDE8DF
:1001CC00F087B3FA83F100294AD1AB4202D38242C1
:1001DC0000F2F980841A65EB030301209846002E87
:1001EC00E2D0C6E90048DFE702B9FFDEB2FA82F2DC
:1001FC00002A40F09180A1EB0C054FEA1C471FFA36
:10020C008CFE0121B5FBF7F307FB1350250C45EAD7
:10021C0000450EFB03F0A84208D91CEB050503F1C1
:10022C00FF3802D2A84200F2CB8043462D1AA4B26A
:10023C00B5FBF7F007FB105544EA05440EFB00FE36
:10024C00A64508D91CEB040400F1FF3502D2A645E3
:10025C0000F2BB802846A4EB0E0440EA03409EE764
:10026C00C1F120078B4022FA07FC4CEA030C20FA60
:10027C0007F405FA01F31C43FD404FEA1C4900FA50
:10028C0001F3B5FBF9F8200C1FFA8CFE09FB18558D
:10029C0040EA054508FB0EF0A84202FA01F20BD920
:1002AC001CEB050508F1FF3A80F08880A84240F26B
:1002BC008580A8F1020865442D1AA4B2B5FBF9F0AB
:1002CC0009FB105544EA054500FB0EFEAE4508D966
:1002DC001CEB050500F1FF346CD2AE456AD902382F
:1002EC00654440EA0840A0FB0294A5EB0E05A5422C
:1002FC00C846A64656D353D05EB1B3EB080265EBA5
:10030C000E0505FA07F722FA01F3CD401F43C6E9A3
:10031C0000750021BDE8F087C2F1200320FA03F13B
:10032C000CFA02FC25FA03F395400D434FEA1C47E7
:10033C001FFA8CFEB3FBF7F107FB11302B0C43EAD1
:10034C00004301FB0EF0984204FA02F408D91CEBAE
:10035C00030301F1FF382FD298422DD9023963449F
:10036C001B1AADB2B3FBF7F007FB103345EA03459C
:10037C0000FB0EF3AB4208D91CEB050500F1FF386E
:10038C0016D2AB4214D902386544ED1A40EA014149
:10039C0038E73146304607E78646E5E61846FAE682
:1003AC004B45A9D2B9EB020864EB0C0E0138A3E75C
:1003BC004046EAE7204694E74146D1E7D0467BE742
:1003CC00023B654432E7084609E76444023842E7D9
:1003DC00704700BF684620F007018D4601B5064BFB
:1003EC0000221A7002F028FB01F068F901F000FB02
:1003FC00BDE8014085467047A80A0020012910B5C8
:10040C00044608D1074802F0DFFA074B984202D0A5
:10041C00064803F0F0F924B1236813B1044B012210
:10042C001A7010BD300100200000AD0B50420000CE
:10043C00A80A002070B50D4D2B7893B100242C70B8
:10044C000B4E0C4D55F8041B30468909013403F052
:10045C00D2F9B4F5007FF5D1BDE87040064803F041
:10046C00CAB90021212002F0D3FFE5E7A80A002039
:10047C00A942000038010020AF42000070B50022F4
:10048C001E4C1F4D1F4E86B01146252001F0FEF864
:10049C004FF400620021204603F09AFB0FCD34602C
:1004AC0001AC0FC42B68236001238DF80A300223A2
:1004BC008DF814308DF80D301349144D4FF0046342
:1004CC0001A8049302F068F9A842044605D010482C
:1004DC0003F091F9204606B070BD00224FF4007174
:1004EC00304602F0FFF9A842044601D00948EFE774
:1004FC0000214FF4803002F08BFFEBE73801002035
:10050C007041000030010020090400000000AD0B18
:10051C00B2420000C242000070B52E4B4FF0A04515
:10052C0003261C22C5F870674FF0FF31C3F8602515
:10053C00012000220724C3F86415C3F86815C3F81A
:10054C006C15C3F80005C3F80C25C3F80425C3F8D3
:10055C000845214CC3F81425C3F81025C3F82045D1
:10056C000224C3F82445C3F82825C3F82C25986029
:10057C0003F5A043C5F870671D25C3F86015C3F8D3
:10058C006455C3F86815C3F86C154FF4E071C3F8E3
:10059C000005C3F80C25C3F80425C3F808150F494A
:1005AC00C3F81425C3F81025C3F82015C3F8244547
:1005BC00C3F82825C3F82C259860094803F01BF9CB
:1005CC00FFF75CFF074B984202D1FFF733FFFCE7C4
:1005DC0070BD00BF00C0014020000020240000209E
:1005EC00D34200000000AD0B0B6801330B60014BD4
:1005FC001B68184700000020014B1860704700BFB3
:10060C000000002007B50B4600210246019103486B
:10061C0001A900F0E5F803B05DF804FBF505000056
:10062C002DE9F84FB0F8189019F0080804469346D5
:10063C000DD001290CBF49F0100949F02009A0F890
:10064C0018908BF31188BFF36F8FBDE8F88F09F00A
:10065C000709022907D1204603F0DAF80028F0D068
:10066C000128238B4ED16769218B002F15DA256861
:10067C0021F00701C4E9008841F001012183002623
:10068C00218B01F0070ACA4502D0A368002B5AD16E
:10069C000DB9002E71D0002356E001F007035A1F4C
:1006AC00012A1ED821F00701062B256889B2C4E95E
:1006BC0000880AD13DB1638B2A46126801339BB284
:1006CC00002AFAD1638341F002012183204603F012
:1006DC009FF806460028D3D0238B43F020032383B6
:1006EC00CDE7042B0CD121F0070189B221832046E0
:1006FC0003F08EF805460028C1D041F0200121837B
:10070C000025BCE7032809D1226923F007031668EA
:10071C0043F00603238300252F46B1E7042806D1B6
:10072C00226923F00703566843F00403F2E7052817
:10073C0006D1226923F00703966843F00503E9E725
:10074C0000252E46E8E7012341F0080121838BF3B5
:10075C001188BFF36F8FFBB985BB16B11F492046BB
:10076C00B0474FF02003EFF3118B83F31188BFF3E5
:10077C006F8F238B23F008032383238BDA0625D575
:10078C0023F0100323830121B4F8189009F0070912
:10079C0000297FF45EAF54E7A1680029DCD0D1F8C2
:1007AC000090D1F804B03B4652462046D847B9F1E8
:1007BC00000FD1D04946D9F80090F2E729463B46C4
:1007CC00524620462D6803F03FF8C5E713F0200190
:1007DC001EBF23F0200323830221D5E781380000BC
:1007EC002DE9F04F91B08B46029092461C460025A5
:1007FC009AF8000008B928465FE325280AF101079A
:10080C0007D0029B594698470028C0F25683013501
:10081C0012E2182200210AA803F0DAF99AF8013042
:10082C00252B78D00022104696469446164639461B
:10083C0017F8013B2B2B00F09D8000F29480202BAD
:10084C0000F09B80232B00F09B802EB19DF8306034
:10085C0046F004068DF83060BCF1000F05D09DF811
:10086C00306046F008068DF83060BEF1000F05D000
:10087C009DF8306046F010068DF8306028B19DF878
:10088C00300040F020008DF830002AB19DF8302067
:10089C0042F040028DF830209DF8302002F04400E8
:1008AC00442803D16FF386128DF830209DF8302048
:1008BC002A2B42F080028DF830207BD19DF831201C
:1008CC0042F001024B1C8DF831201A782E2A9DF82B
:1008DC0031200CBF0121002161F341028DF8312040
:1008EC0074D15A782A2A6AD0013300210A26184674
:1008FC0010F8012BA2F13007092F40F28E809DF8E1
:10090C0030200E91C2F3400040EAD17161F34102F4
:10091C008DF830205AE00AF102078DF833309DF83B
:10092C003130D90740F1498154F8049BB9F1000FDB
:10093C0007DA9DF8302042F004028DF83020C9F11E
:10094C0000095A0740F1428154F8048BB8F1000FAA
:10095C0080F241819DF831306FF341038DF83130D5
:10096C004FF0FF3837E12D2B0CD0302B7FF46DAFCF
:10097C0001225CE74FF0010C59E74FF0010E56E7EE
:10098C00012054E7012652E70CFB0202303A3346B1
:10099C001E4616F8010BA0F13007092FF4D9994225
:1009AC0093D09DF830100D92D20F62F341018DF867
:1009BC0030108AE70B4600224FF00A0CE8E79DF84E
:1009CC00312042F004028DF8312002331F4617F813
:1009DC00012B6C2A41D025D8682A2BD06A2A46D004
:1009EC004C2A4CD01F4617F8012B9DF831308DF84E
:1009FC003320782A00F2D980572A4DD8412A03D0C7
:100A0C00453A022A00F2D1809DF83230042262F37A
:100A1C0002038DF8323001239EE006FB01213039B0
:100A2C00034664E7742A26D07A2ADBD19DF831304C
:100A3C0006220DE05A78682A9DF8312006D1012152
:100A4C0061F3C6028DF831209F1CCCE713460222BD
:100A5C0062F3C6038DF83130C5E75A786C2A9DF8DD
:100A6C00312001D10421EBE713460322F0E79DF876
:100A7C0031300522ECE79DF831300722E8E7BDF86C
:100A8C00303023F4F04323F0020343F4804343F06B
:100A9C000203ADF83030A6E7A2F15801202900F28C
:100AAC00848001A050F821F0790B0000B70B0000F6
:100ABC00B70B0000B70B0000B70B0000B70B000022
:100ACC00B70B0000B70B0000B70B0000150A0000B5
:100ADC00B70B0000790B0000390B0000150A000061
:100AEC00150A0000150A0000B70B0000390B0000B6
:100AFC00B70B0000B70B0000B70B0000B70B0000E2
:100B0C00810B0000790B00009D0B0000B70B00005F
:100B1C00B70B00009D0B0000B70B0000790B000019
:100B2C00B70B0000B70B0000790B00009DF83210DA
:100B3C00012003F0780360F30201402B8DF8321092
:100B4C0002BF9DF8301041F001018DF83010632A7E
:100B5C0031D1003B18BF01239DF83020C2F3400176
:100B6C000B4363F341028DF83020D8E69DF8321028
:100B7C000220DEE79DF8322003F07803A3F1400059
:100B8C00032161F3020243428DF832204341E3E733
:100B9C009DF83220032113F0780F61F302028DF8D7
:100BAC00322014BF01230023D6E79DF8303043F0E8
:100BBC0001038DF830300023CEE79DF93020002A58
:100BCC00B4BFDDF834904FF0FF39BAE69B077FF5E0
:100BDC00C7AEDDF838809DF831100023CDE90D3318
:100BEC009DF8323003F00703012BC1F3C30138D158
:100BFC00CB1E042B22D8DFE803F0030909212100C6
:100C0C0054F8043BDA17CDE90A3206E0073424F035
:100C1C000704F4E80223CDE90A239DF8303013F0E1
:100C2C00030656D002983B465246594602F0EBFE5C
:100C3C000028C0F242810544BA46D9E554F8043B79
:100C4C0001294FEAE372CDE90A3205D19DF828302B
:100C5C000A9300230B93E0E70229DED1BDF928307B
:100C6C00D0E7022B23D1CB1E042B13D8DFE803F0E3
:100C7C00030A0A12120022680A920023201D0B9309
:100C8C000446CAE7E01D20F00700F0E80223CDE996
:100C9C000A23F5E754F8043B0A9301294FF00003AB
:100CAC000B93D3D00229B8D1BDF82830D0E7042B50
:100CBC0009D1E31D23F0070303F10804D3E9002352
:100CCC00CDE90A23A9E7032B04BF54F8043B0A938C
:100CDC00A3E79DF833007828AED8622822D82528BF
:100CEC003FF48FAD5828A7D10DF126030093DDE911
:100CFC000A0104AB0CAA02F040FE8246B8F1000FC8
:100D0C000DF126000CDB9DF83020A0EB0A036FF3ED
:100D1C00861298458DF8302002D9A8EB03030D9369
:100D2C0080463DE06338152886D801A252F820F0A1
:100D3C00BD0D0000210E0000450C0000450C00000C
:100D4C00450C0000450C0000210E0000450C000075
:100D5C00450C0000450C0000450C00007B0E00000B
:100D6C00490E00004D0E0000450C0000450C000023
:100D7C00950D0000450C0000490E0000450C0000CC
:100D8C00450C0000490E0000B8F1000FDDF828A05A
:100D9C000ADB4146504602F0FBFE0AEB0008002637
:100DAC00BAF1000F0CD147E7504602F0EAFEF4E727
:100DBC000A9B8DF8103000260DF1100A0DF1110868
:100DCC00A8EB0A0306B101339DF83220D00668D592
:100DDC00023352060D9948BF0E9A0B4448BF9B181C
:100DEC00B9F1000F76DD9DF83020A9EB0309C2F3B1
:100DFC008003039353076DD4500661D546B1029B13
:100E0C00594630469847002857DB039B01351E4650
:100E1C00302356E01E070FD413F0100618BF2026FF
:100E2C00DDE90A23002BBFF65FAF524263EB4303AD
:100E3C00CDE90A232D2657E72B26F1E7002653E7A9
:100E4C000A9840B30DF1260300930CAA04AB0021C1
:100E5C0002F093FDBDF8323003F0EF0343F4F0439E
:100E6C0043F010038246ADF83230002646E70A9B69
:100E7C0007293FF6E1AEDFE801F00C04060C080888
:100E8C000C0C1D70D8E61D80D6E6EA17C3E900529B
:100E9C00D2E61D60D0E6DFF8C8A006460AF10508C8
:100EAC008EE7110748BF013393E718460393594661
:100EBC00029B98470028039B04DA11B0BDE8F08F21
:100ECC0020234D444A46002AA5EB090109F1FF39BC
:100EDC00EBDC0D4636B1029B59463046984700284C
:100EEC00EBDB01359DF83230D90601D41A0706D553
:100EFC00029B5946302098470028DEDB01359DF8CF
:100F0C003230DB0607D59DF83300029B59469847D3
:100F1C000028D2DB01350D9E2E44731B002B16DCF2
:100F2C00029843465246594602F06DFD0028C4DB38
:100F3C000544A944A9EB0503002B7FF77DAE029B6A
:100F4C005946202098470028B7DB0135F2E7029B71
:100F5C005946302098470028AFDB0135DDE700BF4C
:100F6C00E9420000F8B505464FF02003EFF3118677
:100F7C0083F31188BFF36F8F094B1C685CB1094F69
:100F8C00D4E90132002D08BF13460BB138789847CD
:100F9C002468002CF4D186F31188BFF36F8FF8BD51
:100FAC0038090020400900201FB50F4B1A68BAB948
:100FBC0001221A600D4A07CA01AB83E807000C4AEC
:100FCC004AB193E8070002F022FE002005B05DF85C
:100FDC0004EBFFF7C7BF82F31188BFF36F8FF4E701
:100FEC0005B05DF804FB00BF0400002040090020A0
:100FFC001B3C0000F0B589B06E46014605463046F4
:10100C0002F018FD96E80700174C84E807002078DA
:10101C00274638B3154B002119606B1C0DD01448B2
:10102C0016464FF4004C134A0023E6FB0C01FFF765
:10103C004FF80121281A02F076FF01F0B3FF0120CE
:10104C00FFF790FF97E8070005AB83E807000A4A13
:10105C001AB193E8070002F0C7FDFFF7A5FF02F0F5
:10106C0059F8207809B0F0BD400900200400002098
:10107C003F420F0040420F00F53B000010B50748FF
:10108C00074C01F077FD074B1860204600F0BEFDC1
:10109C002046FFF7B1FA002010BD00BFEF42000060
:1010AC00B51000004C0900200A2838B5074D04463D
:1010BC0004D1286883680D215B6898472868836889
:1010CC00E1B25B689847204638BD00BF4C09002050
:1010DC00084B70B5C31A0D4607499B10044659437B
:1010EC000648402202F0C7FC2B4601462046BDE8CC
:1010FC007040184764090020B76DDBB6B43F0000A0
:10110C0073B50C4C0C4A4023041B00930D460B4644
:10111C000A49A41061430646094802F0D8FC011E96
:10112C0005DA30462B4602B0BDE87040184702B0D5
:10113C0070BD00BF640900204B3B0000B76DDBB6EF
:10114C00B43F0000002270B501210446104600F0A7
:10115C009DFA002000F07CFA0F4801F0FDF90F4BCE
:10116C00984215D102F0DAFD26690D49304602F09D
:10117C009EFB00280BDB246909490125356404F129
:10118C001C0002F094FB002801DBE564002070BD1C
:10119C006FF00400FBE700BFE51100000000AD0B91
:1011AC00BC41000001460C2309484B4370B5C418E0
:1011BC00D4E90E5600224033A263184402F048FCD6
:1011CC002DB132462B460348BDE87040184770BD20
:1011DC0064090020B43F000010B1012804D070470E
:1011EC00034B1B6C5B0701D1FFF7DCBF704700BFE3
:1011FC006409002008B54FF02003EFF3118183F34D
:10120C001188BFF36F8F124A136843F0020013F07A
:10121C00010310600CD04FF08042D2F80C34D2F89D
:10122C000C2413F0010303D00A4802F011FC012333
:10123C0081F31188BFF36F8F23B1BDE80840002004
:10124C00FFF7B0BFBDE80840012001F095B900BF21
:10125C00B4090020A40900201FB500220123CDE908
:10126C000223094ACDF800D06B46CDF804D002F029
:10127C005FFC002805DB4FF480420023684601F038
:10128C0011FE05B05DF804FB633B000010B5074C84
:10129C0023782BB94FF4A57002F063FE0123237061
:1012AC00BDE81040002001F067B900BFA90A00207A
:1012BC00094BBFF35B8F53E8002F22F0020143E888
:1012CC0000100028F7D1BFF35B8FD30702D40120A5
:1012DC0001F09AB9704700BFB40900202DE9F04124
:1012EC003949BFF35B8F0746012251E8003F41E8C3
:1012FC0000200028F9D1BFF35B8F33B93349344850
:10130C004B60CB608A6002F0E5FA7B1E012B2FD874
:10131C00012F07D14FF08043D3F81C3403F00303A3
:10132C00012B25D002F02AFD044618B9294B1B7855
:10133C00002B41D14FF02003EFF3118683F311887A
:10134C00BFF36F8F0124DFF890804FF08045D5F804
:10135C001834D5F81824D2030CD503F00303012B51
:10136C0001D0012F06D10CB386F31188BFF36F8F18
:10137C00BDE8F081ACB1304600F0F0F9D5F8183585
:10138C00002BE4D1D5F80421002AE0D0C5F80431B3
:10139C00D5F804310123C5F81835C8F88031AB6095
:1013AC00D5E70021212002F033F8E7E74FF0804326
:1013BC000222C3F80423DBE74FF080430222C3F878
:1013CC0008230646BFE700BFB809002054090020D7
:1013DC0080090020AC0A002000E100E0044A1368F8
:1013EC00C81A20F07F400344136002F063B900BFB9
:1013FC00CC0900202DE9F843860006F1804600F167
:10140C00500406F58836A400A4B204F180444FF4CD
:10141C008037D6F84035DFF86C8021F07F4504F535
:10142C0088348740D8F80495A3EB090323F07F4355
:10143C0029F07F42012BC6F8402502D1132002F07F
:10144C0090FD09F10202AB1A23F07F43B3F5000FB4
:10145C0088BF1546002323602368C8F8447325F021
:10146C007F43C6F84035D8F80435994506D0EB1AB9
:10147C00023B23F07F43B3F5000F01D8BDE8F8839E
:10148C002B46CFE70010014070B5154D154C0026CA
:10149C002B68002006B170BDD4F80423D203FAD512
:1014AC00D4F84021002AF6D0C4F84061D4F8402189
:1014BC004FF48032C4F84823D4F84015D4F80465AE
:1014CC00721A22F07F42B2F5000F88BF3146012616
:1014DC001BB16A6828609847DAE72B60DBE700BF2E
:1014EC00C00900200010014038B50F4C00254FF406
:1014FC008033C4F80855C4F804330C4B4FF4003255
:10150C00C3F8802101212A46112000F0BFF81120D8
:10151C0000F09EF80123064AA360022023601360AA
:10152C00FFF7DCFE284638BD0010014000E100E06A
:10153C00C8090020134AB0F1FF3F14BF03461346FD
:10154C00013B002B1CDD9342A8BF13460E4AD2F878
:10155C0004050E4A1168401A10F4000F20F07F4267
:10156C0018BF002301321344094A0A4810600020B6
:10157C005060044A934294BFC9188918FFF73ABFC8
:10158C000023E3E7FFFF7F0000100140CC0900209F
:10159C00C0090020E9130000044BD3F80405044BE8
:1015AC001B68C01A20F07F40704700BF001001403C
:1015BC00CC090020094A0A499368096899670949C6
:1015CC0058674B6843F080534B60002383F31188BA
:1015DC00BFF36F8F9368986F704700BF680A002045
:1015EC004C42000000ED00E00F498A684FF03000DB
:1015FC001044EFF3098C80E8F01F202080F3118851
:10160C00BFF36F8F094F4FF000664A6A8A603E60E5
:10161C00506F0023536780F3118802F1300090E87B
:10162C00F01F8CF309887047680A002004ED00E075
:10163C001EF0040F0CBFEFF30880EFF309808169F3
:10164C0011F8021C0229FFD001B502F08FFA01BD7E
:10165C0043B2002B08DB012200F01F0002FA00F05D
:10166C005B09024A42F82300704700BF00E100E02A
:10167C00054B420900F01F0053F82220012303FA06
:10168C0000F01040704700BF00E100E043B2002BB7
:10169C00A8BF03F1604301F10101B8BF064B4FEA4B
:1016AC004111ACBF03F5614300F00F00C9B2B4BFE8
:1016BC00195483F80013704714ED00E008B572B6A6
:1016CC00044B186A18B100221A6202F05DFB62B674
:1016DC0008BD00BF680A002042F8203C009B42F87D
:1016EC001C3C0A49019B42F8183C029B42F8143CF2
:1016FC0021F001014FF0807342F8043C42F8081CC1
:10170C000023203A02654367704700BF733900001D
:10171C00074B9860104681F30988002163B681F36A
:10172C001188BFF36F8F0022002302F01CF900BF59
:10173C00680A0020014910220A60704710ED00E091
:10174C0072B6404080F31188BFF36F8FBFF34F8F99
:10175C0030BF62B6BFF36F8F704700BF72B649409F
:10176C0081F3118820BF80F3118862B6704700BFE7
:10177C0030BFFFF7FDBF00BF0B4A08B50B4B22F083
:10178C007F029A60BFF34F8FBFF36F8FD3F888201F
:10179C0022F47002C3F8882001F016FA01F0AAFEB8
:1017AC0000F078F901F034FA0000000000ED00E0E0
:1017BC0001B572B60B4A106A00281EBF00211162D7
:1017CC0002F0E2FA62B6EFF30580A0F110004FEAE6
:1017DC00C0000549014409C99847BDE801400349C7
:1017EC0008470000680A002014400000FD190000A2
:1017FC00002080F31488BFF36F8F02F0B7FB00203A
:10180C000D490860BFF34F8F0C4880F3088800F037
:10181C000FF9202080F3118809484FF4006140181B
:10182C0080F30988EFF314800221084380F31488B5
:10183C00BFF36F8FFFF7A0FF94ED00E0B00E002018
:10184C00F00F0020EFF30880EFF3098101B5724629
:10185C0000F040F801BD00BF0D4B9A6A9A6A9A6A73
:10186C00920508D59A6B9A6A120404D518B19A6A33
:10187C0022F400429A62064B9A6A9A6AD20558BFC1
:10188C009A6A9A6A002042F47F429A620870704702
:10189C0000ED00E00E4B9A6A9A6A9A6A920708D594
:1018AC005A6B9A6A120604D518B19A6A22F0800211
:1018BC009A62074B9A6A9A6A9A6AD20658BF9A6ACF
:1018CC009A6A002042F0FF029A620870704700BFCB
:1018DC0000ED00E070B5414B5B688AB00E46C3F377
:1018EC000803002585F31188BFF36F8F02F07F4149
:1018FC00B1F17F4F11D102F00C0108290DD0110765
:10190C0001D4064601250022033B8DF80720032B4A
:10191C005CD8DFE803F004464A4E2E46F3E72F4B23
:10192C00DC6A14F0020451D1DA6A520021D593F822
:10193C00282032B10DF107010120FFF7ABFF04465F
:10194C0017E093F829202AB10DF107010120FFF7C8
:10195C0083FFF4E75A8D92B25AB19A6A9A6A9A6ADC
:10196C009A6A9A6A9A6A9A6A6FEA02426FEA124211
:10197C009A629DF8073093B92022314602A802F0F2
:10198C001CF9099B25B3C3F3080222B96FEA532350
:10199C006FEA4323099302A9204602F0E5F80AB046
:1019AC0070BD0DF107010020C7E70DF10701002004
:1019BC00CDE70A4B9A6A9A6A9A6A9A6A9A6A9A6AFA
:1019CC009A6A6FEA02426FEA12429A620024D0E7E6
:1019DC0023F4FF7323F00103DCE700BF00ED00E00C
:1019EC00024A536943F010035361704700ED00E065
:1019FC00044B9968586A884203D003494FF08052CF
:101A0C000A607047680A002004ED00E00749D1F82D
:101A1C0090200023C2F307221846934200D170474E
:101A2C00C1F89830C1F8A0000133F6E700ED00E0F2
:101A3C0008B572B6002383F31388FFF7E7FF144B46
:101A4C004FF0FF32C3F88020C3F88420C3F88820FD
:101A5C00C3F88C20C3F89020C3F89420C3F89820C6
:101A6C00C3F89C20C3F88021C3F88421C3F88821D3
:101A7C00C3F88C21C3F89021C3F89421C3F89821A2
:101A8C00C3F89C2162B6BFF34F8FBFF36F8F08BDB5
:101A9C0000E100E0044800232021C2180133272B69
:101AAC0082F80013F9D1704700E100E0064B9B6807
:101ABC00834207D1EFF3058323B1044A536843F003
:101ACC008053536001F0C4BC680A002000ED00E0B4
:101ADC00024B034A0348012100F05EB800000120CC
:101AEC0000000020C8410000F0B51F4F00268E42B8
:101AFC0001DB1046F0BD44689CB353B104F1FF3CCC
:101B0C0014EA0C0F18D11F2C16D905681CEA050F06
:101B1C0012D1202C0568D0F808C0D2B20FD9B4F17C
:101B2C00004F0ED8013CB4FA84F4C4F11F046400D5
:101B3C00072A4CEA040406D96FF01502D9E70824E9
:101B4C00F6E73E24F4E725F01F05154345F0100594
:101B5C0044F00104C7F89820C7F89C500132C7F82C
:101B6C00A04001360C30C2E700ED00E0044B05222A
:101B7C00C3F89420BFF34F8FBFF36F8F704700BF34
:101B8C0000ED00E0BFF35F8F024B0022C3F89420FE
:101B9C00704700BF00ED00E010B5034C0123227824
:101BAC00FFF7A2FF207010BDAA0A00201449086894
:101BBC00082810B521D8FFF7E5FF124C4968002220
:101BCC00904201F10C0105D10F4B1870FFF7CEFFBD
:101BDC00002010BDC4F8982051F80C3C23F01F03D2
:101BEC00134343F01003C4F89C3051F8043C43F009
:101BFC000103C4F8A0300132E2E74FF0FF30E8E710
:101C0C00D441000000ED00E0AA0A0020014B18604E
:101C1C00704700BF080000204FF02003EFF3118243
:101C2C0083F31188BFF36F8F06490123C1F8403548
:101C3C004FF08041C1F8783582F31188BFF36F8F74
:101C4C000020704700E001404FF08043C0B2C3F861
:101C5C001C05BFF34F8F0549054BCA6802F4E062BF
:101C6C001343CB60BFF34F8F00BFFDE700ED00E0E7
:101C7C000400FA0520B1034B800143F0010318471F
:101C8C00704700BF9041000008B5094B1A786AB93B
:101C9C000121197006200521FFF7F8FC0620FFF73B
:101CAC00D7FC044B4FF00042C3F80423002008BDBE
:101CBC00AB0A002000600040F7B517464268066981
:101CCC00127A01F01F04B7F5A03F0D4644EA421406
:101CDC000CD104F01F0202F5E0724FF0A04151F854
:101CEC002220D00707D56FF085009AE0B7F5005F8A
:101CFC00F16800F09880F2680121A94011437269E3
:101D0C00F1600121A940B7F5A03F0CBF0A438A43FB
:101D1C007261B269B3F5C02F0CBF0A438A43B2613A
:101D2C003269B3F5802F0CBF114322EA01014A4AF4
:101D3C003161D2F804330020DBB200F5A27152F805
:101D4C002110C1F304218C4272D123FA00F1C9078E
:101D5C006ED5830003F1804303F5C043D3F810150F
:101D6C0021F00101C3F8101501238340C2F8083398
:101D7C00C0B200F0B9FC2046002101F053FFF0681E
:101D8C00E84010F001004CD07069E84010F00102FE
:101D9C0055D0B369EB40DB075FBF316921FA05F51C
:101DAC0005F00105C5F102050DF1070054BFEDB2B8
:101DBC00032500F0B9FC294B98423DD19DF8072032
:101DCC00930003F1804303F5C0432402D3F81015AC
:101DDC0021F4473121F44071C3F81015D3F81015D4
:101DEC0004F4F8540C4344EA0545C3F81055930029
:101DFC0003F1804303F5C243002018609DF80710DF
:101E0C001B688B0003F1804303F5C043D3F8102506
:101E1C0042F00102C3F810250F4A01238B40C2F88F
:101E2C00043303B0F0BD0122AA4021EA020166E7A7
:101E3C000130082881D19EE76FF01200F1E731697B
:101E4C00E94001F00101C1F103012046C9B201F0E2
:101E5C00E9FE1046E5E700BF006000400000AD0B56
:101E6C002A4B70B546682A48134083423ED00DD8A1
:101E7C00062B15D005D89BB1022B39D06FF015006D
:101E8C0033E0B3F5801FF9D1012309E021488342E7
:101E9C0030D0B3F5A00F2FD0B3F5800FEED10223C5
:101EAC00D00654BFC2F34015032582F4807412F49B
:101EBC00007FC2F34020C4F3002407D012F4006F5B
:101ECC0076681BD001228A40C6F8082540EA4402F5
:101EDC0001F01F0142EA032301F5E0714FF0A0422B
:101EEC0043EA850342F82130002070BD0723D7E771
:101EFC000423D5E70523D3E70323D1E7520542BFDB
:101F0C0001228A40C6F80C25E0E700BF0600F0006D
:101F1C0006001000020040002DE9F843414BD3F8B5
:101F2C007C51002D59D0404B4FF0A049D3E90521ED
:101F3C00DF68D9F810451B690A4327EA02075C40A1
:101F4C0027EA04043A4601264FF0000882BB354BC1
:101F5C00C3F87C21D3F87C31344A32480023012663
:101F6C001F46D0F8041306FA03FC1CEA010F0CD030
:101F7C00116851B103F5A27150F821101760C1F32B
:101F8C00042106FA01F10C4311680133082B02F10C
:101F9C000402E6D11CBB4DB1234ED6E90531F268E3
:101FAC000B4322EA0302012400254ABBBDE8F88357
:101FBC0016420ED03E4208F01F0008BF00F5E07339
:101FCC004FF0000108BF59F8233001F02BFE22EA34
:101FDC00060208F101087600B8E72C46BCE7124B64
:101FEC0059680029D7D00E68114F8A68224002D058
:101FFC004B6838469847002ECDD031463668F4E70A
:10200C0014420CD03169E94001F00101C1F1030126
:10201C00C9B205F01F0001F005FE22EA04020135E9
:10202C006400C2E700600040D40900200061004059
:10203C00FC3F0000074BD3F8082142B10020C3F845
:10204C000801D3F80821D3F818350B7070474FF0FE
:10205C00FF30704700200040024BD3F88004C3F8D7
:10206C00800470470020004010B54B79012B1CD127
:10207C008B79032B19D1CB79BBB90A7912B1022A0E
:10208C0013D10E220B68B3F5164F5ED02BD8B3F5D7
:10209C00165F5CD014D8B3F5966F5AD008D8B3F548
:1020AC00967F59D0B3F5167F59D06FF085004BE071
:1020BC00B3F5166F56D0B3F5965FF6D1334B39E0C6
:1020CC00B3F5E14F51D007D8B3F5615F4FD0B3F5FD
:1020DC00964FEAD12E4B2DE047F61224A342E4D1C1
:1020EC004FF4000326E0B3F5613F43D011D8B3F5AC
:1020FC00963F41D008D84DF6C024A3423ED0B3F54C
:10210C00614FD2D1234B15E0B3F5E13FCDD1224B3A
:10211C0010E0B3F5612F34D007D8204CA34232D055
:10212C00B3F5E12FC1D11E4B04E01E4CA342BCD130
:10213C004FF080531C4CC4F82435C4F86C2503694B
:10214C0003C983E80300002010BD184BF2E7184BBD
:10215C00F0E74FF49E23EDE74FF4A033EAE74FF49A
:10216C001C33E7E74FF41D23E4E7124BE2E74FF48F
:10217C006C13DFE7104BDDE7104BDBE74FF4650327
:10218C00D8E70F4BD6E74FF08063D3E700B01300CE
:10219C0000A04E0000F0EB0000E0D70190D003004F
:1021AC0000705F0740420F000020004000509D006F
:1021BC000050270000F0750000B0AF0300903A010A
:1021CC0000D0BE0E10B5144C01690023C4F80035C4
:1021DC004FF0A0434022C3F808250322C3F8182768
:1021EC000C22C3F820270823C4F814350623C4F89E
:1021FC000C354FF0FF33C4F80835C4F81035FFF731
:10220C0033FF40B90423C4F80035C4F80801D4F8EE
:10221C0008310123236010BD00200040F8B50E46A4
:10222C0001F0ACFD1A4D78BB64240127BFF35B8F22
:10223C0055E8003F002B03D145E80072002AF7D186
:10224C00BFF35B8F07D021200021013C01F0E0F8A7
:10225C0014F0FF04EAD10F4C0023C4F81C31D4F85D
:10226C001C310123A360C4F81C654FF47A76D4F8B2
:10227C001C3123B9012001F04FFD013EF7D10123A0
:10228C00E36000232B60F8BD01232B60E3E700BF64
:10229C00F4090020002000404FF0704393F8E02F29
:1022AC00062A09D1D3F8E83FC3F30313033B042BED
:1022BC0002D8024AD05C7047002070472B430000C4
:1022CC00024AD2F80034002BFBD0704700E00140EA
:1022DC0010B501F012FD40B14FF08053904AD3F885
:1022EC002433C3F30423C2F84035FFF7D5FF10B1F4
:1022FC008C4B8D4A5A6701F000FD48B14FF080536A
:10230C004FF08042D3F84432C3F34233C2F83C3529
:10231C00FFF7C2FF30B1854AD2F8FC3023F080734E
:10232C00C2F8FC3001F0E9FC40B14FF080430022D0
:10233C00C3F80C21C3F81021C3F83825FFF7ACFF04
:10234C0020B14FF080430322C3F8A025FFF7A4FF70
:10235C0060B1774B0522C3F810260122C3F88826FA
:10236C000022C3F818263F22C3F814264FF08053DE
:10237C00D3F83021511C09BF4FF07043D3F83431DE
:10238C0093F8E02FD3F8E83F08BFC3F30313062AF2
:10239C004DD1033B042B03D8664AD35C002B46D0AB
:1023AC004FF08052644BD2F80414C3F82015D2F8C5
:1023BC000814C3F82415D2F80C14C3F82815D2F855
:1023CC001014C3F82C15D2F81414C3F83015D2F825
:1023DC001814C3F83415D2F81C14C3F84015D2F8ED
:1023EC002014C3F84415D2F82414C3F84815D2F8B5
:1023FC002814C3F84C15D2F82C14C3F85015D2F885
:10240C003014C3F85415D2F83414C3F86015D2F84C
:10241C003814C3F86415D2F83C14C3F86815D2F814
:10242C004014C3F86C15D2F84424C3F8702501F09D
:10243C0064FC48B14FF080534FF08042D3F85832CF
:10244C0003F04F03C2F8E43E01F057FC48B14FF0E3
:10245C008043D3F80024D20744BF6FF00102C3F8C5
:10246C0000244FF08053D3F83021062A26D1D3F81C
:10247C003431033B042B02D8304AD35C63B1304A6D
:10248C00D2F83C3743F48063C2F83C374FF08053AA
:10249C00D3F83031062B11D14FF08053D3F83431AF
:1024AC00033B042B02D8274AD35C3BB14FF01023DB
:1024BC00D3F808224FF08043C3F858254FF010236F
:1024CC00D3F80022002A03DBD3F80432002B22DAE3
:1024DC001D4901234FF01020C1F804351524FFF7D6
:1024EC00EFFEC0F80042FFF7EBFEC0F80442FFF726
:1024FC00E7FE0023C1F80435FFF7E2FEBFF34F8F70
:10250C000A49124BCA6802F4E0621343CB60BFF372
:10251C004F8F00BFFDE70E4B0E4A1A6010BD00BF77
:10252C000030014000C007400DF0ADBA00ED00E0F6
:10253C00005000401C43000000C00040214300003C
:10254C00001000402643000000E001400400FA05A2
:10255C00140000200090D003044B1A7922B90122F8
:10256C0018609A800248704702487047F8090020AA
:10257C000000AD0B0C00AD0B30B510B1012834D000
:10258C0030BD4FF08043D3F81824D3F81814C90386
:10259C0029D502F00302012A25D1C3F818254FF0E2
:1025AC0080430022C3F80421D3F804210222C3F88B
:1025BC000423134AD2F8FC0040F08073C2F8FC30BC
:1025CC00104B1C6844F0010119605D685968491B87
:1025DC00B1F50A5FFAD31C604FF08043C2F8FC00DF
:1025EC0001229A60CCE70022D7E74FF0804300220B
:1025FC00C3F80021D3F80021C3F804031860BFE727
:10260C0000ED00E0001000E038B510B1012817D043
:10261C0038BD4FF080440223C4F80833C4F80401D9
:10262C00D4F804310123E36042F21075D4F8183465
:10263C00DB03EDD5012001F06FFB013DF6D1E7E79F
:10264C004FF080440023C4F80803C4F80031D4F8D8
:10265C000031606042F21075D4F80C34D4F80C24BC
:10266C00D20303F0010305D523B1012001F054FB83
:10267C00013DF1D1014B00225A71C9E7F809002044
:10268C004FF0804310B5D3F800216AB10022C3F893
:10269C000021D3F800210122C3F80823114B5879EB
:1026AC0010B95A711B6898474FF08043D3F8042136
:1026BC0072B10022C3F80421D3F80421D3F81824F2
:1026CC00D3F81814920704D10122C3F818259A6084
:1026DC0010BD0222C3F80823024BBDE810401B6852
:1026EC0001201847F8090020012303FA00F0C3B2B7
:1026FC0093B14FF02003EFF3118183F31188BFF3F3
:10270C006F8F064AD36C23EA0000D06481F31188E2
:10271C00BFF36F8F0248704702487047000A0020D1
:10272C000000AD0B0400AD0B2DE9F0410546DFF8C0
:10273C005CE01748DFF85C800024FF220126E3B23E
:10274C004FF02001EFF3118C81F31188BFF36F8FE1
:10275C0022FA03F1C9070AD5DEF84C1006FA03F782
:10276C00394201BF3943CEF84C1040462B708CF3E4
:10277C001188BFF36F8F404505D006FA03F39A43D7
:10278C0004F10104DBD1BDE8F08100BF000A002098
:10279C000200AD0B0000AD0B2DE9F0414C4D2B7937
:1027AC00002B40F0928090F806C090F8078090F8CB
:1027BC0008E0467A877AC468027CBCF1000F0ED11F
:1027CC00012E03D1012A0AD1424873E0022E06D110
:1027DC00082A04D840F25513D340DB07F4D43E4BFF
:1027EC00C3F804C5C3F82485C3F820E5C3F81C65F9
:1027FC00C3F82875C3F81825002C5DD1C3F8104513
:10280C000778467807F01F0406F01F024FF0A0432C
:10281C0004F5E07402F5E072BCF1000F52D14FF0F8
:10282C00030C43F824C043F822C08478FF2C1FBF4C
:10283C0004F01F0303F5E0734FF0A0424FF0030CBC
:10284C0018BF42F823C0C27808BF4FF0FF34FF2AEC
:10285C001FBF02F01F034FF0A04C03F5E0734FF0C5
:10286C00030E18BF4CF823E0037908BF4FF0FF327A
:10287C00FF2B1FBF03F01F0000F5E0704FF0A04CC2
:10288C004FF0000E18BF4CF820E0134808BF4FF073
:10289C00FF33C0F86475C0F86865C0F86045C0F8CF
:1028AC007025C0F86C3525202960FEF7D1FE012378
:1028BC000A482B71BDE8F0810122C3F81445C3F816
:1028CC0010259DE74FF0000CABE70548F2E700BF81
:1028DC00500A00200400AD0B005002400000AD0B6C
:1028EC000500AD0B70B5324A1379012B0E465AD147
:1028FC00036823B103F06041B1F1005F55D1416829
:10290C0021B101F06041B1F1005F4ED15179003B32
:10291C0018BF012363F3000151714368D680191E5F
:10292C00537918BF012123F01E0343EA410353716D
:10293C0003C8204B83E80300D2E902541E4B00204D
:10294C00C2E90400C3F85065C3F838552D1A18BFF6
:10295C000125C3F80855C3F84045241A18BF0124B3
:10296C00C3F80C4502210124C3F800451171C3F8CA
:10297C000401D3F80411C3F81401D3F81411C3F8EB
:10298C000801D3F8081151790C4801FA04F2090135
:10299C0002F0020201F020010A4342F00402C3F8E3
:1029AC0004231C6070BD0648FCE70648FAE700BF2C
:1029BC00500A0020580A0020005002400000AD0BC5
:1029CC000500AD0B0A00AD0B154B5A79D20630B58C
:1029DC0022D5026822B102F06041B1F1005F1DD135
:1029EC00416821B101F06044B4F1005F16D15C790B
:1029FC00A50744BF0B4DC5F84015E10744BF094975
:102A0C00C1F8382503C8084A82E803005A790748F8
:102A1C006FF304125A7130BD0548FCE70548FAE71C
:102A2C00500A002000500240580A00200000AD0B54
:102A3C000500AD0B0A00AD0B3A4BF7B5D3F81421DA
:102A4C00394C7AB10022C3F81421D3F814316379CC
:102A5C0043F0080303F01202122A637104BF43F01F
:102A6C00200363712F4BD3F804217AB10022C3F8F1
:102A7C000421D3F80431637943F0040303F0110209
:102A8C00112A637104BF43F020036371254BD3F803
:102A9C000821AAB10021C3F80811D3F80821234852
:102AAC000422C3F80823C3F80015236898470123B0
:102ABC0023711F482368022103B0BDE8F04018477A
:102ACC00637903F00F020F2A08D0D80701D4190735
:102ADC0004D46279920723D45B0721D562792768E5
:102AEC0002F0F30312F0200208D023F0300343F07D
:102AFC0010036371012100203B46DDE70B4D95E887
:102B0C0003006E4686E8030015E9030043F010034A
:102B1C0085E80300C4E90222637101213046B847FD
:102B2C0003B0F0BD00500240500A0020600A0020A3
:102B3C00580A00200E4B70B553F82040013053F862
:102B4C002060A64200D870BDD4E9003528469847CD
:102B5C0065B1EB6830B10028B8BF4042FF28A8BF70
:102B6C00FF2018705A7842F001025A700834E8E7D6
:102B7C003842000070B5054610B90024204670BDDF
:102B8C000378002BF9D00E4C0E4EB44208D10C4CED
:102B9C00B442F2D0204601F0CCF850B91834F7E723
:102BAC00204601F0C6F810B12368AB42E6D01834C9
:102BBC00EBE72168284600F0F4FF0028EED1DDE7B2
:102BCC00B43F0000144000000248034A0021121ACE
:102BDC0000F0FEBF28000020B00A002008B50A4B08
:102BEC00012202201A70FFF7A5FF00F0D7FD032089
:102BFC00FFF7A0FF00F0C4F8FDF78EFC034A137B2F
:102C0C0023F00103137308BDAC0A0020A8000020B8
:102C1C002DE98048DFF8E090A7B089F30888374D9C
:102C2C00374E6B69DFF8DCA0374F43F40073002498
:102C3C006B61E02385F82230EC772C766C76AC76E1
:102C4C006B6A43F4E0236B62FEF7CAFEFEF772FD7B
:102C5C004FF0FF33AB62EB62FEF7A8FF2B4DFEF794
:102C6C0037FF40F20113ADF8243006ABAB60CDE971
:102C7C001F4401F05DF82046FFF75CFF0120FFF7D1
:102C8C0059FF4FF0010B00F02FFB214B6E622149D5
:102C9C0005934FF480625346CDE9034BCDE90144D3
:102CAC000094304600F03CF8737B804623F004031C
:102CBC003046737301F0C7F80F23CDE90243164970
:102CCC00164B4FF4A072CDE904B4CDE9005438464C
:102CDC0000F026F87B7BEF6023F004037B7305F197
:102CEC001803C5E906332C75C5F8049052464146C5
:102CFC003046FEF70DFD00BFF017002000ED00E0A0
:102D0C00A8000020E92B000028000020680A002001
:102D1C0030430000B00A0020B00E0020452E000009
:102D2C002DE9FF410E9E0673042646730D9E867395
:102D3C0000F15805D61DC0E916550C9A002526F051
:102D4C000706C0E90655C0E919168560C573C56646
:102D5C0002920B9A019201EB06080A9A00924246E3
:102D6C000446FEF7B9FC054B65659B6803B11B6F08
:102D7C002367404604B0BDE8F08100BF680A00201C
:102D8C002DE9F043294C2A4D87B02646AE4204F17A
:102D9C0030040FD300F006F9244CDFF898904FF470
:102DAC00004640F2E737AC4220D307B0BDE8F04311
:102DBC0000F0B0B954F8043C059354F8103C04935B
:102DCC0054F8143C039354F8183C029354F81C3CEC
:102DDC00019354F8203C009354E90C0154E90A2364
:102DEC00FFF79EFF54F8303C5E65CEE7636A5A1CD1
:102DFC000DD023EAE37300213846C3FB060151EAE8
:102E0C00C333D4F8008004D1404600F04FFA30347C
:102E1C00C9E74FF47A720023FDF75AF902460B46C4
:102E2C0008F11800494600F0CBFBF0E72800002021
:102E3C0028000020733E000008B5094C4FF020021A
:102E4C00EFF3118382F31188BFF36F8F01F05BF8FE
:102E5C002062FEF7CFF80028F0D1FEF771FCEDE709
:102E6C00680A002038B504464FF02003EFF31185B3
:102E7C0083F31188BFF36F8F01F017F848B100226C
:102E8C00826700F0E0FF29460548BDE8384000F0B5
:102E9C0077B8D4E902329A4218BF0133A360F2E743
:102EAC00AD0A002013B54FF02004EFF3118184F329
:102EBC001188BFF36F8F846844B1013C846081F347
:102ECC001188BFF36F8F002002B010BD52EA0304CB
:102EDC0006D181F31188BFF36F8F6FF00F00F3E70A
:102EEC00CDE900230246024800F0CEF8ECE700BF23
:102EFC00AD0A002010B5084C23685BB1FEF74CFB03
:102F0C0003462068054A0344BDE8104013610021C4
:102F1C0001F009B810BD00BFA00A0020680A00200B
:102F2C00F8B504460D464FF02003EFF3118683F3FA
:102F3C001188BFF36F8F0F4B00214FF4004740F205
:102F4C00E73019614FF47A720023E4FB0701FDF7B7
:102F5C00BFF8002C084B09DC1860084B1D60FFF70C
:102F6C00C9FF86F31188BFF36F8FF8BD0228B8BF75
:102F7C000220F1E7680A0020A00A00209C0A002029
:102F8C0049B9EFF3058030B9054B5A6A9B689A42F0
:102F9C0001D0FEF70FBB81F31188BFF36F8F704721
:102FAC00680A00204FF02003EFF3118183F311889E
:102FBC00BFF36F8F044B9A68D37B013BD37381F3C0
:102FCC001188BFF36F8F7047680A002038B502462E
:102FDC000C480D4D00F007FF044600B9EC68AB68D7
:102FEC004AB95A7BD20606D1A26922B9DA897F2A5C
:102FFC0001D96B6238BD9C4201D0FFF77BFF6C623C
:10300C00F8E700BF900A0020680A002008B590F984
:10301C000D20437B002A014604DA03F07F0343733F
:10302C0000F0B9FE044B9868431A58425841BDE869
:10303C000840FFF7CBBF00BF680A00202DE9F04124
:10304C00064615461C464FF02003EFF3118783F319
:10305C001188BFF36F8F00F0CCFE87F31188BFF39C
:10306C006F8FB4F1FF3F08BFB5F1FF3F08D02A4680
:10307C00234606F118000349BDE8F04100F0A0BA60
:10308C00BDE8F081733E000010B5074B9868074B04
:10309C000C4618601146DDE90223FFF7CFFF2046EE
:1030AC00BDE81040FEF786BA680A0020980A002096
:1030BC0070B50446183000F010FF4FF02003EFF30A
:1030CC00118683F31188BFF36F8F94F90D20637B06
:1030DC00002A05DA03F07F036373204600F05BFEE1
:1030EC000B4D637BA86843F010036373031B5842BA
:1030FC005841FFF76BFF86F31188BFF36F8FAB68F6
:10310C00A34203D1BDE8704000F063BE70BD00BFA8
:10311C00680A002010B54FF02003EFF3118483F3FD
:10312C001188BFF36F8F084B9A68D37B0133D3732D
:10313C000020FFF74BFF84F31188BFF36F8FBDE8BE
:10314C00104000F046BE00BF680A002070B590F930
:10315C000D20437B002A014604DA03F07F034373FE
:10316C0000F019FE4B7B154A63F07F034B73D2E9D9
:10317C000A3402F12805AB421BD0D3B191F90E6091
:10318C0093F90E0086420FD0801B00280CDD586886
:10319C00C1E90030016059609068431A5842BDE89B
:1031AC0070405841FFF712BFA34202D01B68002B9E
:1031BC00E6D1C1E900542160D162EDE7680A002034
:1031CC0038B501464FF02003EFF3118483F31188D7
:1031DC00BFF36F8F154B164A98681568A84206D135
:1031EC00FFF788FE84F31188BFF36F8F38BD00257D
:1031FC001560104A1268BAB1C2897F2A14D8427B72
:10320C00D20611D10C4A90F90E50126895420BDB84
:10321C000A4A904208D01A698A4202DCFFF796FFEC
:10322C00DEE7521A1A61DDE70022FBE7680A00208C
:10323C00980A0020A00A00209C0A002028000020E8
:10324C0070B490F90D20437B002A2ADBDA0628D1D2
:10325C00826932BB144A63F07F034373D2E90A34A8
:10326C0002F12805AB4217D0B3B190F90E6093F977
:10327C000E108E420BD0891B002908DD5A68C0E95C
:10328C0000321060586070BC0020FFF79FBEA34254
:10329C0002D01B68002BEAD1C0E900542060D06238
:1032AC00F1E770BC704700BF680A002010B54FF002
:1032BC002002EFF3118482F31188BFF36F8F427BEE
:1032CC00510704D484F31188BFF36F8F10BD22F023
:1032DC0004024273FFF7B4FF21460248BDE81040D8
:1032EC00FFF74EBEAD0A0020044B002103F128026B
:1032FC00C3E90A220846FFF713BE00BF680A002084
:10330C00F8B54FF02003EFF3118583F31188BFF369
:10331C006F8F1A498868437B03F07F03437300F077
:10332C003AFD8B685A7B084662F07F025A7350F85C
:10333C00282F82421CD0DAB1CF6A93F90E6092F931
:10334C000E40A6420FD0A41B002C0CDD5168C3E923
:10335C0000210B6053600120FFF738FE2846BDE8C2
:10336C00F840FEF727B9BA4202D01268002AE6D11B
:10337C00CA6AC3E900021360CB62ECE7680A00205A
:10338C0050EA01032DE9F04105460E4603D1FFF743
:10339C00B7FF002033E06FF00104241A4FF0FF3325
:1033AC0063EB0103012C73F1000302DA00F0D5FD8D
:1033BC0044194FF02003EFF3118883F31188BFF306
:1033CC006F8F104F104BB8681860FFF71FFEB8686E
:1033DC000E492A463346183000F0F2F8BA68537B8F
:1033EC0043F0100353734046FEF7E4F800F0B5FDCC
:1033FC00201A63EB0303012873F10003C9DBBDE85A
:10340C00F08100BF680A0020980A0020733E00007B
:10341C00B1F1FF3F08BFB0F1FF3F08B506D1084B33
:10342C009868FFF745FE4FF0FF3008BDFFF7A8FF87
:10343C004FF47A7380FB0303C00B40EA4340F4E77C
:10344C00680A0020014B9868704700BF680A00208A
:10345C002DE9F04104464FF02003EFF3118683F37E
:10346C001188BFF36F8F437B1A0705D586F311883C
:10347C00BFF36F8FBDE8F08123F0200242F008010A
:10348C00D20920D14173A36813B1204600F08BFC04
:10349C0004F1180000F021FD04F158074FF000086A
:1034AC00A56DBD4200D0B5B90120FFF78FFD104BC3
:1034BC009B68A342DAD1EFF30583002BD6D13046BB
:1034CC00FEF778F8D2E703F05F0343F00803437389
:1034DC0000F061FCD7E7284600F065FC05F1180008
:1034EC0000F0FBFCC5F878802846FFF7A9FED7E76B
:1034FC00680A002008B50648064A0749121A00F067
:10350C005CFBBDE80840054A0549064800F055BB80
:10351C0000000020280000206C4300000000000088
:10352C006C43000000000020034B1B680BB9FEF736
:10353C0033B80020704700BFA40A0020114B10B50F
:10354C001C689C4208BF0024FFF7EEFF03466CB1D9
:10355C00D4E90402C01A62EBE373012873F1000290
:10356C000DDBB0F1004F73F1000301DB6FF0004095
:10357C00054B1B6913B19842A8BF184610BD00201B
:10358C00F6E700BF18000020680A002030B5036879
:10359C0068B10A4A5268904209D043B1D3E9042178
:1035AC00D0E90445121941EB0501C3E90421426835
:1035BC0013605A600023C0E9003330BD18000020AE
:1035CC00B3F1FF3F08BFB2F1FF3FF8B504461F4609
:1035DC00154667D081604FF02003EFF3118683F31B
:1035EC001188BFF36F8F6FF00102531B4FF0FF3C3C
:1035FC006CEB0703002B1BDB2B4BD3E90013521A8C
:10360C006CEB0303551B63EB0703012D73F10002F5
:10361C00BCBF01250023C0E904532448D0E9003C79
:10362C00834218D1C4E9000CCCF80040446026E079
:10363C00FFF77AFF013547F100072D1847EBE077CC
:10364C00C4E90457E9E7521A65EB07059C45C4E940
:10365C000425E7D01B68002BE4D0D3E90417D4E988
:10366C0004258A4275EB070EEDDA8A1A67EB05051D
:10367C00C3E904255A68C4E9003214605C6003682D
:10368C0083420BD09C4209D1FFF758FF18B1084B6D
:10369C001B69834202D00021FDF74CFF86F3118891
:1036AC00BFF36F8FF8BD00BF280100201800002069
:1036BC00680A00202DE9F8430546FFF781FD4FF01D
:1036CC002003EFF3118483F31188BFF36F8F244E23
:1036DC00DFF890803560244DD8F800003268404502
:1036EC00D5E9001E4FEAE2770BD050B1D0E9043C8B
:1036FC009A4277EB0C0916DA9B1A6CEB070CC0E9B3
:10370C00043C52184EEB0707C5E90027002535602D
:10371C00FFF714FF2946FDF70DFF84F31188BFF363
:10372C006F8FBDE8F88359184EEBE377D31A3360EB
:10373C0000220023C0E90423C5E90017FFF726FF88
:10374C0084F31188BFF36F8F836898474FF0200381
:10375C00EFF3118483F31188BFF36F8FBCE700BFC5
:10376C00A40A0020180000202801002010B54FF0FA
:10377C002003EFF3118483F31188BFF36F8FFDF7F0
:10378C000BFF054AD2E90031C01841F1000184F366
:10379C001188BFF36F8F10BD28010020024A034926
:1037AC00034800F028B800BFB142000035430000C8
:1037BC00424300007047034658B1426802F00302CE
:1037CC00012A03D0032A04D1026812B100209860A8
:1037DC0070476FF0150070474268816002F0030279
:1037EC00032A4FF0000203460CBF006810465A60D3
:1037FC007047002070470FB407B504A951F8040BAB
:10380C000191FCF7FFFE03B05DF804EB04B07047C8
:10381C00038B13F0070305D10368002B0CBF0020AA
:10382C0003207047022B05D1438B002B14BF0020C3
:10383C0004207047012B05D10368002B0CBF00201E
:10384C0005207047002070472DE9F0410D460746D2
:10385C001946281D90461E46FFF7BEFF044638B198
:10386C003346424629463846A446BDE8F0416047F7
:10387C00BDE8F08110B44FF02004EFF3118284F313
:10388C001188BFF36F8F416110BC0121FCF7C8BEDA
:10389C0010B50C4640B139B1081DFFF78CFF28B9A3
:1038AC00A36833F0030301D06FF0150010BD38B5D9
:1038BC000C46054658B151B10B6843B14B6833B156
:1038CC001C22002100F084F92C61002038BD6FF01F
:1038DC001500FBE770B504460E46FFF7D9FF051E31
:1038EC0031DB4FF02003EFF3118183F31188BFF329
:1038FC006F8F638B208B4FF6FF75AB4200F0070286
:10390C002ED0022A0ED1013363831546012381F395
:10391C001188BFF36F8FB3B1002331462046FFF7F8
:10392C0093FF10E0830701D0062A0ED100233360E9
:10393C00636893B9C4E90066154662B90A46204625
:10394C000221FCF76DFE284670BD052A0CBF6FF0F6
:10395C0085056FF004050023D9E71E606660EBE770
:10396C006FF00A05F7E7044608B5084611461A46F3
:10397C00A047FFF767FDFEF799F82DE9F84F9A4637
:10398C00D3786F2B80460F461546A3F1410B29D0F7
:10399C0024D8582B14BF0A261026DDF8289032465E
:1039AC00002340463946FCF793FB092AD4B21ED8B3
:1039BC003034B045E4B277F1000309F8014D01D37E
:1039CC00D14511D82B789B0605D5082E15D1AB788F
:1039DC0043F00803AB704846BDE8F88F03F0F703DB
:1039EC00702BD7E70826D8E780460F46D7E7BBF100
:1039FC00190F94BF37345734DBE7102EEBD1AB786B
:103A0C0043F01003E6E72DE9F041074688461546DA
:103A1C001E461446B442A4EB050002D33EB92378EB
:103A2C002BB114F8010B4146B8470028F2DABDE877
:103A3C00F08170470022C0E9002282607047036960
:103A4C00C9B20C2201FB0233186C00F0070070475E
:103A5C004FF02003EFF3118283F31188BFF36F8FC4
:103A6C00036803F0C00343F00203036082F3118880
:103A7C00BFF36F8F7047034670B50069C9B24FF042
:103A8C002004EFF3118684F31188BFF36F8F0C259C
:103A9C0005FB0104246C14F0C00401D0A24210D127
:103AAC0005FB010001220264002086F31188BFF39C
:103ABC006F8F28B95B6803EBC1014B6898470020F6
:103ACC0070BD4FF0FF30F0E78022FFF7D4BFF8B5A0
:103ADC00069F04690546C9B24FF02000EFF3118C24
:103AEC0080F31188BFF36F8F0C2606FB0146306CF8
:103AFC0000F0070EBEF1010F11D1376400268CF3D4
:103B0C001188BFF36F8F46B90C2000FB0144C4E948
:103B1C000E236B6853F8313098473046F8BD00F0EF
:103B2C00C000874214BF4FF0FF366FF07706E6E710
:103B3C0013B580240094FFF7CAFF02B010BD0069D2
:103B4C0010B4CBB21C2403FB0400002110BC1047A2
:103B5C000020FEF759BD1046FFF784B97047704737
:103B6C000021012000F000B800F0EDB8014600681B
:103B7C0000F0E9B808B5FDF7FBFDBDE80840FDF71E
:103B8C0037BF034600201A5C02B970470130FAE7D0
:103B9C00034600201A5C0AB1884200D170470130FC
:103BAC00F8E7431E013913F8012F11F8010F824277
:103BBC0001D1002AF7D1101A704710B5431E0A44E0
:103BCC00914200D110BD11F8014B03F8014FF7E7FA
:103BDC00C9B202440346934200D1704703F8011B5B
:103BEC00F9E74FF0FF30704784B004AB03E90700EE
:103BFC009DF80430062B08D14FF080430122C3F806
:103C0C000025BFF34F8F20BFFDE704B0704784B091
:103C1C0004AB03E90700002383F31188BFF36F8F14
:103C2C0004B0704700F01F00800000F1A040D0F8F5
:103C3C00003723F4403343EA0143C0F800377047A0
:103C4C0043685B68D3F810350B60002070474368FD
:103C5C005B68D3F8040542400A404240C3F804258F
:103C6C000020704743685B680020C3F80815704754
:103C7C0043685B680020C3F80C15704743685A68AA
:103C8C00D2F804354B40C2F8043500207047036964
:103C9C00586830B558B10024814212D108689D682B
:103CAC0054B98D42586000D19860002008606AB900
:103CBC00002030BD2846EFE78D42206008BF9C6095
:103CCC00F3E705680446002DF4D13AB198685A68B8
:103CDC000A6059600028EBD19960EAE76FF0150093
:103CEC00E7E702690B4692E8030083E80300002033
:103CFC00704708B50020FDF7A7FF4FF08053D3F8AD
:103D0C003001421C04BF4FF0704393F8E00F831F47
:103D1C00584258417047004700F023B908B50020BD
:103D2C00FDF7A6FC18B9BDE80840FDF791BC08BD2D
:103D3C00704738B1C3681888C0F30800A0F58073C9
:103D4C00584258417047F8B505460E464FF02003CF
:103D5C00EFF3118783F31188BFF36F8FFFF772FBBB
:103D6C00314604462846FFF7C4FF87F31188BFF39A
:103D7C006F8F2046BDE8F840FDF798BEEFF3058045
:103D8C00003818BF0120704708B5FDF70DF9BDE8E4
:103D9C000840FFF7E4BED0E9003213605A600023FC
:103DAC00C0E90033704708B5FFF7F5FF437B23F0FC
:103DBC00020343730023836008BD034620B9EFF36D
:103DCC0005820AB9FDF7F6BB83F31188BFF36F8F39
:103DDC0070474FF02003EFF3118083F31188BFF38A
:103DEC006F8FFFF7EABF03460068834208BF0020CD
:103DFC00704738B504460D46FFF708F9637B43F06E
:103E0C000203637395B12B68A5609D4215D0A3B1D5
:103E1C0094F90E1093F90E20914208D0521A002AF0
:103E2C0005DD5A68C4E9003214605C6038BD6A680C
:103E3C00934202D01B68002BECD16B68C4E9005391
:103E4C001C606C60F2E710B54FF02003EFF31184A7
:103E5C0083F31188BFF36F8FFFF7F2F984F31188A6
:103E6C00BFF36F8F10BD10B501464FF02003EFF379
:103E7C00118483F31188BFF36F8F10F80B3C13F090
:103E8C00280F0DD151F8103C18380BB1FFF78BFFF0
:103E9C0011F80B3C23F0140301F80B3CFFF7D0F99D
:103EAC0084F31188BFF36F8F10BD38B54FF020032A
:103EBC00EFF3118583F31188BFF36F8FFFF793FF37
:103ECC00044620B1FFF76FFF183000F006F885F3B9
:103EDC001188BFF36F8F204638BD10B54FF020020C
:103EEC00EFF3118482F31188BFF36F8F03683BB13A
:103EFC00FFF74CFB002084F31188BFF36F8F10BDCC
:103F0C006FF01500F7E710B54FF02003EFF31184B5
:103F1C0083F31188BFF36F8FFFF710FB84F31188C5
:103F2C00BFF36F8F10BD70B504460D464FF02003E4
:103F3C00EFF3118683F31188BFF36F8FFFF7FEFA4F
:103F4C00012805DDA04203DB29462046FDF7F2FAE5
:103F5C0086F31188BFF36F8F70BD08B5FFF706FCB1
:103F6C0008BD08B1FDF786BE70470000FEF7B0B97A
:083F7C0090C1FF7F010000006D
:103F8400251C00000000000051110000B43F000097
:103F9400D1210000CC3F0000891000000000000087
:103FA400F5140000E43F0000951C0000FC3F0000F5
:103FB400F6420000AC410000984100005009002086
:103FC4006409002064410000EF420000000000008A
:103FD40024420000F00900200C0000205A41000097
:103FE400FC4200000000000000000000BC090020AA
:103FF4000000000054410000154300001842000076
:10400400F4410000D0090020D40900204C410000F4
:104014008D260000233D0000000000006D3B0000E1
:10402400000000006D3B0000000000006D3B00003C
:10403400000000006D3B0000000000006D3B00002C
:1040440000000000251F0000000000006D3B000080
:10405400000000006D3B0000000000006D3B00000C
:10406400000000006D3B0000000000006D3B0000FC
:10407400000000006D3B0000000000006D3B0000EC
:10408400000000006D3B0000000000006D3B0000DC
:10409400000000006D3B00000000000095140000CB
:1040A400000000006D3B0000000000006D3B0000BC
:1040B400000000006D3B0000000000006D3B0000AC
:1040C400000000006D3B0000000000006D3B00009C
:1040D400000000006D3B0000000000006D3B00008C
:1040E400000000006D3B0000000000006D3B00007C
:1040F400000000006D3B0000000000006D3B00006C
:10410400000000006D3B0000000000006D3B00005B
:10411400000000006D3B0000000000006D3B00004B
:10412400000000006D3B0000000000006D3B00003B
:10413400000000006D3B0000000000006D3B00002B
:08414400000000006D3B0000CB
:10414C00FF7FFF7FFF7FFF7FFF7FFF7FFF7FFF7F73
:10415C00FF7FFF7FFF7FFF7FFF7FFF7FFF7FFF7F63
:02416C00FF7FD3
:02416E00FFFF51
:104170000204FFFF0507000000010100000000200D
:10418000000000000000000000000000000000002F
:104190000338FDD87047000065120000D53A0000D2
:1041A0003D3B0000000000004B3A000001120000FF
:1041B000BD120000991200005D3B00000D110000CF
:1041C000DD100000000000000000002000000000E2
:1041D00000000B0602000000DC41000000000000AF
:1041E0000643000024000207000000200E430000E8
:1041F0001E000B116D1E00004D3C00005B3C0000DA
:10420000713C00007D3C0000893C0000C51C0000A2
:104210009B3C000000000000FFFFFFFF000000507B
:10422000000000004120000029220000652000005D
:1042300075200000EF3C0000843F0000A43F000018
:10424000AC3F0000B43F0000B43F0000F5FFFFFFAB
:104250004572726F72212C20636F6E74696E75697E
:104260006E672072756E6E696E6720617320696675
:10427000206E6F7468696E672068617070656E6526
:10428000642C2062757420796F752073686F756C6B
:10429000642070726F6261626C7920696E766573FA
:1042A0007469676174652E0A0025642C200A000A6F
:1042B0000A0049325320696E6974206572726F7208
:1042C0000A00493253207374617274206572726FF0
:1042D000720A004D696E3A2D36353533382C4D61F2
:1042E000783A36353533380A00286E696C2900551E
:1042F0004152545F3000434C4F434B007379735F1E
:10430000636C6F636B00464C4153485F30005352FF
:10431000414D5F30004750494F5F300000000101C0
:104320000100000001010000000001010000000088
:104330006D61696E0076322E362E39392D6E6373BB
:1043400031002A2A2A20426F6F74696E67205A65ED
:1043500070687972204F53206275696C64202573F0
:0C436000202573202A2A2A0A00000000F1
:10436C00FF37000001000000EF3B000000C201001D
:10437C00000103000090D00318000020180000205A
:08438C00038004009080C000D2
:04000003000017FDE5
:00000001FF
